{
  "contractName": "MyContract",
  "abi": [
    {
      "constant": false,
      "inputs": [
        {
          "name": "_studentId",
          "type": "uint256"
        },
        {
          "name": "_name",
          "type": "string"
        },
        {
          "name": "_gender",
          "type": "string"
        },
        {
          "name": "_age",
          "type": "uint256"
        }
      ],
      "name": "setStudentInfo",
      "outputs": [],
      "payable": false,
      "stateMutability": "nonpayable",
      "type": "function"
    },
    {
      "constant": true,
      "inputs": [
        {
          "name": "_studentId",
          "type": "uint256"
        }
      ],
      "name": "getStudentInfo",
      "outputs": [
        {
          "name": "",
          "type": "string"
        },
        {
          "name": "",
          "type": "string"
        },
        {
          "name": "",
          "type": "uint256"
        }
      ],
      "payable": false,
      "stateMutability": "view",
      "type": "function"
    }
  ],
  "bytecode": "0x608060405234801561001057600080fd5b506104e0806100206000396000f30060806040526004361061004c576000357c0100000000000000000000000000000000000000000000000000000000900463ffffffff16806365a81d7d14610051578063e1962c3b1461016a575b600080fd5b34801561005d57600080fd5b5061007c6004803603810190808035906020019092919050505061022d565b604051808060200180602001848152602001838103835286818151815260200191508051906020019080838360005b838110156100c65780820151818401526020810190506100ab565b50505050905090810190601f1680156100f35780820380516001836020036101000a031916815260200191505b50838103825285818151815260200191508051906020019080838360005b8381101561012c578082015181840152602081019050610111565b50505050905090810190601f1680156101595780820380516001836020036101000a031916815260200191505b509550505050505060405180910390f35b34801561017657600080fd5b5061022b60048036038101908080359060200190929190803590602001908201803590602001908080601f0160208091040260200160405190810160405280939291908181526020018383808284378201915050505050509192919290803590602001908201803590602001908080601f0160208091040260200160405190810160405280939291908181526020018383808284378201915050505050509192919290803590602001909291905050506103b7565b005b606080600080600085815260200190815260200160002060000160008086815260200190815260200160002060010160008087815260200190815260200160002060020154828054600181600116156101000203166002900480601f0160208091040260200160405190810160405280929190818152602001828054600181600116156101000203166002900480156103075780601f106102dc57610100808354040283529160200191610307565b820191906000526020600020905b8154815290600101906020018083116102ea57829003601f168201915b50505050509250818054600181600116156101000203166002900480601f0160208091040260200160405190810160405280929190818152602001828054600181600116156101000203166002900480156103a35780601f10610378576101008083540402835291602001916103a3565b820191906000526020600020905b81548152906001019060200180831161038657829003601f168201915b505050505091509250925092509193909250565b60008060008681526020019081526020016000209050838160000190805190602001906103e592919061040f565b50828160010190805190602001906103fe92919061040f565b508181600201819055505050505050565b828054600181600116156101000203166002900490600052602060002090601f016020900481019282601f1061045057805160ff191683800117855561047e565b8280016001018555821561047e579182015b8281111561047d578251825591602001919060010190610462565b5b50905061048b919061048f565b5090565b6104b191905b808211156104ad576000816000905550600101610495565b5090565b905600a165627a7a72305820ea46187a240ba7073626f7bb14e2878d737524c6c5603d5309c2641e2f8ab8640029",
  "source": "pragma solidity ^0.4.24;\n\ncontract MyContract {\n    struct Student {\n        string studentName;\n        string gender;\n        uint age;\n    }\n\n    mapping(uint256 => Student) studentInfo;\n\n    function setStudentInfo(uint _studentId, string _name, string _gender, uint _age) public {\n        Student storage student = studentInfo[_studentId];   // _studentId 키값으로 이루어진 특정 Student 구조체 정보를 생성한다. \n\n        // 각 필드에 인자로 받은 자료들을 대입\n        student.studentName = _name;\n        student.gender = _gender;\n        student.age = _age;\n    }\n\n    function getStudentInfo(uint256 _studentId) public view returns(string, string, uint){ \n                                                             // 아직 솔리디티에서 리턴 값 매개변수를 구조체를 인자값으로 받아 올 수 없다\n        // 매개변수로 받을 _studentId를 키값으로 생성된 구조체의 studentInfo값들을 불러온다. \n        return (studentInfo[_studentId].studentName, studentInfo[_studentId].gender, studentInfo[_studentId].age);\n    }\n}",
  "sourcePath": "/Users/ddinggu/Blockchain/truffle/contracts/MyContract.sol",
  "compiler": {
    "name": "solc",
    "version": "0.4.24+commit.e67f0147.Emscripten.clang"
  },
  "schemaVersion": "2.0.1",
  "updatedAt": "2018-08-12T04:32:40.758Z"
}